:020000040800F2
:10000000002800201D130008951100089B1100080E
:10001000A1110008A7110008AD11000800000000A0
:10002000000000000000000000000000B311000804
:10003000BF11000800000000CB110008D711000814
:1000400065130008651300086513000865130008B0
:1000500065130008651300086513000865130008A0
:100060006513000865130008651300086513000890
:100070006513000865130008651300086513000880
:100080006513000865130008651300086513000870
:100090006513000865130008651300086513000860
:1000A0006513000865130008651300086513000850
:1000B000E511000865130008000000006513000842
:1000C0006513000800000000000000006513000830
:1000D0000000000065130008651300080000000020
:1000E0006513000865130008651300080000000090
:1000F0000000000000000000000000000000000000
:0C01000000000000000000005FF808F1A3
:10010C0010B5054C237833B9044B13B10448AFF345
:10011C0000800123237010BD2C0000200000000083
:10012C008C29000808B5034B1BB103490348AFF3F6
:10013C00008008BD00000000300000208C29000861
:10014C0080B400AF064B1B68012B04D1044B00227A
:10015C001A60012300E000231846BD4680BC70479E
:10016C004800002080B400AF034B01221A6000BF8E
:10017C00BD4680BC704700BF4800002080B500AF72
:10018C001F4B1B681F4A13601F4B1B681C4A1360D4
:10019C004FF400511D4801F0CBFB03461A461A4B95
:1001AC001A60174B1A68184B1B689A4225D1144BCE
:1001BC001A68144B1B689A421FD1124B1A68144BC5
:1001CC001B689A420DD00F4B1B68114A1360104BE1
:1001DC001B68002B11D10F4BC8221A60FFF7C2FF0E
:1001EC000BE00C4B1B68013B0A4A1360094B1B6864
:1001FC00002B02D1064B01221A6000BF80BD00BF4C
:10020C000400002008000020000000200010014025
:10021C000C0000201000002080B500AF3F4B1B6885
:10022C00013B032B70D801A252F823F049020008BD
:10023C007B020008AF020008E10200080122202125
:10024C00374801F08CFB01228021354801F087FBF7
:10025C0001224021324801F082FB304B02221A600D
:10026C004FF4167000F082FEFFF76AFF53E000F0C7
:10027C00C3FF2C4B1B68012B06D1284B03221A60A1
:10028C004FF4967000F072FEFFF75AFF0346012BF5
:10029C003CD1224B0C221A604FF47A7000F066FEAF
:1002AC0034E000F0A9FF1F4B1B68012B05D11B4B41
:1002BC0004221A60C82000F059FEFFF741FF0346E4
:1002CC00012B25D1154B0E221A604FF47A7000F0D9
:1002DC004DFE1DE000F090FF124B1B68012B06D168
:1002EC000E4B02221A604FF4FA7000F03FFEFFF73B
:1002FC0027FF0346012B0DD1084B0D221A604FF43A
:10030C007A7000F033FE05E000BF04E000BF02E0AD
:10031C0000BF00E000BF00BF80BD00BF4C0000204C
:10032C00000801405400002080B500AF304B1B6822
:10033C000E2B20D00E2B51DC0C2B02D00D2B34D0DD
:10034C004CE000F059FF2B4B1B68012B06D1284BBE
:10035C0002221A604FF4FA7000F008FEFFF7F0FE6C
:10036C000346012B3CD1224B0E221A604FF47A70BB
:10037C0000F0FCFD34E000F03FFF1E4B1B68012B2E
:10038C0006D11B4B03221A604FF4967000F0EEFD61
:10039C00FFF7D6FE0346012B24D1154B0D221A6014
:1003AC004FF47A7000F0E2FD1CE000F025FF114BD9
:1003BC001B68012B05D10E4B04221A60C82000F0DB
:1003CC00D5FDFFF7BDFE0346012B0DD1084B0C22CA
:1003DC001A604FF47A7000F0C9FD05E000BF04E02C
:1003EC0000BF02E000BF00E000BF00BF80BD00BF47
:1003FC004C0000205400002080B582B000AF00F00B
:10040C00ADFF00F0B5FC00F03BFD00F0EDFC002270
:10041C002021544801F0A3FA01228021514801F017
:10042C009EFA012240214F4801F099FA0122022143
:10043C004C4801F094FA002208214A4801F08FFA46
:10044C0001220421474801F08AFA00224FF400717E
:10045C00454801F084FA00224FF48061424801F0D3
:10046C007EFA00224FF400613F4801F078FA002236
:10047C004FF480513C4801F072FA00224FF40051C5
:10048C00394801F06CFA00224FF48041364801F0F3
:10049C0066FA00224FF40041334801F060FA002262
:1004AC000121314801F05BFA002202212E4801F0B3
:1004BC0056FA002204212C4801F051FA002208219E
:1004CC00294801F04CFA00221021274801F047FA84
:1004DC0000222021244801F042FA00224021224827
:1004EC0001F03DFA214801F08BFE214B01221A60EC
:1004FC0005237B6005233B60642000F04BFD6420EA
:10050C0000F090FD642000F0BBFDFFF785FEFFF7C7
:10051C000BFF184B1B68012B21D17B683B603868A3
:10052C0000F002FA642000F035FD7B68013B7B6033
:10053C007B68002B13DC0E4B1B68042B0CD0042B9C
:10054C00E3DC022B02D0032B03D009E003237B60F6
:10055C0006E002237B6003E005237B6000E000BF24
:10056C00D3E700BF00080140000C014070000020E0
:10057C004C0000205C00002080B582B000AF786099
:10058C007B68092B00F2C98101A252F823F000BF4D
:10059C00C50500081B06000871060008C706000800
:1005AC001D07000873070008C90700081F0800088A
:1005BC0075080008D108000800224FF40071C048EB
:1005CC0001F0CDF900224FF48061BD4801F0C7F96C
:1005DC0000224FF40061BA4801F0C1F900224FF437
:1005EC008051B74801F0BBF900224FF40051B448D8
:1005FC0001F0B5F900224FF48041B14801F0AFF998
:10060C0001224FF40041AE4801F0A9F985E1012225
:10061C004FF40071AA4801F0A2F900224FF4806156
:10062C00A74801F09CF900224FF40061A44801F0A6
:10063C0096F901224FF48051A14801F090F9012262
:10064C004FF400519E4801F08AF901224FF4804189
:10065C009B4801F084F901224FF40041984801F0C5
:10066C007EF95AE100224FF40071954801F077F9B8
:10067C0000224FF48061924801F071F901224FF48D
:10068C0000618F4801F06BF900224FF480518C48C7
:10069C0001F065F900224FF40051894801F05FF92F
:1006AC0001224FF48041864801F059F900224FF4A1
:1006BC000041834801F053F92FE100224FF40071FF
:1006CC007F4801F04CF900224FF480617C4801F026
:1006DC0046F900224FF40061794801F040F90022FC
:1006EC004FF48051764801F03AF901224FF4005151
:1006FC00734801F034F901224FF48041704801F045
:10070C002EF900224FF400416D4801F028F904E164
:10071C0001224FF400716A4801F021F900224FF4D4
:10072C008061674801F01BF900224FF400616448B6
:10073C0001F015F901224FF48051614801F00FF9D5
:10074C0001224FF400515E4801F009F900224FF4E8
:10075C0080415B4801F003F900224FF400415848F6
:10076C0001F0FDF8D9E000224FF40071544801F07B
:10077C00F6F801224FF48061514801F0F0F80022A4
:10078C004FF400614E4801F0EAF800224FF480511A
:10079C004B4801F0E4F801224FF40051484801F0B5
:1007AC00DEF800224FF48041454801F0D8F80022D1
:1007BC004FF40041424801F0D2F8AEE000224FF471
:1007CC0000713F4801F0CBF801224FF480613C48A6
:1007DC0001F0C5F800224FF40061394801F0BFF870
:1007EC0000224FF48051364801F0B9F800224FF442
:1007FC000051334801F0B3F800224FF480413048E7
:10080C0001F0ADF800224FF400412D4801F0A7F89B
:10081C0083E000224FF40071294801F0A0F8002277
:10082C004FF48061264801F09AF800224FF40061E1
:10083C00234801F094F801224FF48051204801F034
:10084C008EF801224FF400511D4801F088F8012266
:10085C004FF480411A4801F082F801224FF4004114
:10086C00174801F07CF858E000224FF4007114484E
:10087C0001F075F800224FF48061114801F06FF817
:10088C0000224FF400610E4801F069F800224FF489
:10089C0080510B4801F063F800224FF400510848D6
:1008AC0001F05DF800224FF48041054801F057F843
:1008BC0000224FF40041024801F051F82DE000BF36
:1008CC00000C014000224FF40071164801F047F86B
:1008DC0000224FF48061134801F041F800224FF4DC
:1008EC000061104801F03BF800224FF480510D4894
:1008FC0001F035F801224FF400510A4801F02FF8AD
:10090C0000224FF48041074801F029F800224FF4EF
:10091C000041044801F023F800BF00BF0837BD4672
:10092C0080BD00BF000C014080B582B000AF786084
:10093C007B68092B00F2808101A252F823F000BFE2
:10094C0075090008BD090008050A00084D0A0008D1
:10095C00950A0008DD0A0008250B00086D0B00083D
:10096C00B50B0008FD0B000800220121B44800F073
:10097C00F6FF00220221B24800F0F1FF0022042110
:10098C00AF4800F0ECFF00220821AD4800F0E7FF73
:10099C0000221021AA4800F0E2FF00222021A848E2
:1009AC0000F0DDFF01224021A54800F0D8FF43E113
:1009BC0001220121A24800F0D2FF00220221A0480E
:1009CC0000F0CDFF002204219D4800F0C8FF012259
:1009DC0008219B4800F0C3FF01221021984800F029
:1009EC00BEFF01222021964800F0B9FF01224021D0
:1009FC00934800F0B4FF1FE100220121904800F061
:100A0C00AEFF002202218E4800F0A9FF0122042132
:100A1C008B4800F0A4FF00220821894800F09FFFBA
:100A2C0000221021864800F09AFF012220218448E0
:100A3C0000F095FF00224021814800F090FFFBE080
:100A4C00002201217E4800F08AFF002202217C480E
:100A5C0000F085FF00220421794800F080FF00227D
:100A6C000821774800F07BFF01221021744800F028
:100A7C0076FF01222021724800F071FF00224021F4
:100A8C006F4800F06CFFD7E0012201216C4800F0A8
:100A9C0066FF002202216A4800F061FF0022042157
:100AAC00674800F05CFF01220821654800F057FF01
:100ABC0001221021624800F052FF002220216048E0
:100ACC0000F04DFF002240215D4800F048FFB3E0EC
:100ADC00002201215A4800F042FF0122022158480D
:100AEC0000F03DFF00220421554800F038FF0022A1
:100AFC000821534800F033FF01221021504800F028
:100B0C002EFF002220214E4800F029FF0022402118
:100B1C004B4800F024FF8FE000220121484800F0F0
:100B2C001EFF01220221464800F019FF0022042179
:100B3C00434800F014FF00220821414800F00FFF49
:100B4C00002210213E4800F00AFF002220213C48E0
:100B5C0000F005FF00224021394800F000FF6BE057
:100B6C0000220121364800F0FAFE0022022134480E
:100B7C0000F0F5FE00220421314800F0F0FE0122C5
:100B8C0008212F4800F0EBFE012210212C4800F028
:100B9C00E6FE012220212A4800F0E1FE012240213C
:100BAC00274800F0DCFE47E000220121244800F039
:100BBC00D6FE00220221224800F0D1FE00220421A0
:100BCC001F4800F0CCFE002208211D4800F0C7FE93
:100BDC00002210211A4800F0C2FE002220211848E1
:100BEC0000F0BDFE00224021154800F0B8FE23E0C5
:100BFC0000220121124800F0B2FE0022022110480E
:100C0C0000F0ADFE002204210D4800F0A8FE0022E9
:100C1C0008210B4800F0A3FE01221021084800F027
:100C2C009EFE00222021064800F099FE0022402161
:100C3C00034800F094FE00BF00BF0837BD4680BDDE
:100C4C00000C014080B582B000AF786000F0B6F9BE
:100C5C0000F0CEF900F0FAF900F026FAFFF78EFA60
:100C6C00FFF7DAFA3C4B1B68012B5ED13B4B1B6840
:100C7C00032B40D0032B59DC012B02D0022B1FD0AD
:100C8C0054E0374B03221A60364B64221A60344B03
:100C9C001B681846FFF770FC00220821324800F050
:100CAC005EFE01220221304800F059FE4FF496708E
:100CBC0000F0B8F9294B1B680133284A136035E062
:100CCC00274B02221A60264B1B681846FFF72CFE96
:100CDC0001220821244800F042FE0022042122486F
:100CEC0000F03DFEC82000F09DF91C4B1B68013341
:100CFC001A4A13601AE01A4B05221A60184B1B682B
:100D0C001846FFF739FC00220221174800F027FE95
:100D1C0001220421144800F022FE4FF4FA7000F076
:100D2C0081F90E4B01221A6000E000BF0F4B1B68CB
:100D3C00012B0CD10A4B1B681846FFF71DFC084B06
:100D4C001B68013B064A1360642000F099F900BF50
:100D5C000837BD4680BD00BF640000201400002091
:100D6C001C00002018000020000801406C0000202E
:100D7C0080B590B000AF07F1180328220021184667
:100D8C0001F0F6FD3B1D00221A605A609A60DA6091
:100D9C001A610223BB610123BB621023FB62002397
:100DAC007B6307F11803184600F0F2FD0346002B95
:100DBC0001D000F0D5F80F237B600023BB6000232B
:100DCC00FB6000233B6100237B613B1D0021184627
:100DDC0001F05EF80346002B01D000F0C1F800BF13
:100DEC004037BD4680BD000080B586B000AF07F12E
:100DFC00080300221A605A609A60DA603B460022AF
:100E0C001A605A601D4B4FF080421A601B4B41F622
:100E1C003F725A60194B00229A60184B0922DA6013
:100E2C00164B00221A61154B00229A61134801F0EF
:100E3C0097F90346002B01D000F092F84FF4805341
:100E4C00BB6007F1080319460C4801F02DFB034663
:100E5C00002B01D000F084F800233B6000237B6062
:100E6C003B461946054801F0F5FC0346002B01D022
:100E7C0000F076F800BF1837BD4680BD700000202A
:100E8C0080B588B000AF07F1100300221A605A60D9
:100E9C009A60DA602E4B9B692D4A43F010039361E4
:100EAC002B4B9B6903F01003FB60FB68284B9B6981
:100EBC00274A43F004039361254B9B6903F0040319
:100ECC00BB60BB68224B9B69214A43F008039361CA
:100EDC001F4B9B6903F008037B607B680022EE21AB
:100EEC001C4800F03CFD00224FF67F611A4800F0D0
:100EFC0036FD4FF400533B6100237B610123BB6142
:100F0C0007F110031946154800F098FBEE233B61DE
:100F1C0001237B610023BB610223FB6107F11003FA
:100F2C0019460C4800F08AFB4FF67F633B610123A6
:100F3C007B610023BB610223FB6107F1100319469F
:100F4C00054800F07BFB00BF2037BD4680BD00BFCD
:100F5C000010024000080140000C0140001001404C
:100F6C0080B400AF72B600BFFEE7000080B483B05F
:100F7C0000AF7860054A7B681360054B00221A604D
:100F8C0000BF0C37BD4680BC704700BF500000202E
:100F9C005400002080B483B000AF7860054A7B68B1
:100FAC001360054B00221A6000BF0C37BD4680BC95
:100FBC00704700BF580000205C00002080B400AFD8
:100FCC00094B1B68002B0BDD074B1B68013B064ACA
:100FDC001360054B1B68002B02DC044B01221A60CA
:100FEC0000BFBD4680BC704750000020540000205C
:100FFC0080B400AF094B1B68002B0BDD074B1B6843
:10100C00013B064A1360054B1B68002B02DC044BAA
:10101C0001221A6000BFBD4680BC704758000020FA
:10102C005C00002080B483B000AF7860054A7B6818
:10103C001360054B00221A6000BF0C37BD4680BC04
:10104C00704700BF600000206400002080B400AF37
:10105C00094B1B68002B0BDD074B1B68013B064A39
:10106C001360054B1B68002B02DC044B01221A6039
:10107C0000BFBD4680BC70476000002064000020AB
:10108C0080B483B000AF7860054A7B681360054B71
:10109C0000221A6000BF0C37BD4680BC704700BFF1
:1010AC00680000206C00002080B400AF094B1B6866
:1010BC00002B0BDD074B1B68013B064A1360054BED
:1010CC001B68002B02DC044B01221A6000BFBD46DA
:1010DC0080BC7047680000206C00002080B485B094
:1010EC0000AF154B9B69144A43F001039361124BFB
:1010FC009B6903F00103BB60BB680F4BDB690E4AB5
:10110C0043F08053D3610C4BDB6903F080537B605D
:10111C007B680A4B5B68FB60FB6823F0E063FB6059
:10112C00FB6843F00073FB60044AFB68536000BF2C
:10113C001437BD4680BC70470010024000000140CF
:10114C0080B584B000AF78607B681B68B3F1804FCA
:10115C0013D10C4BDB690B4A43F00103D361094BF0
:10116C00DB6903F00103FB60FB68002200211C20FB
:10117C0000F02DFA1C2000F046FA00BF1037BD46D7
:10118C0080BD00BF0010024080B400AFFEE780B409
:10119C0000AFFEE780B400AFFEE780B400AFFEE71F
:1011AC0080B400AFFEE780B400AF00BFBD4680BC8A
:1011BC00704780B400AF00BFBD4680BC704780B4A0
:1011CC0000AF00BFBD4680BC704780B500AF00F0DB
:1011DC000BF900BF80BD000080B500AF024801F0E4
:1011EC005BF800BF80BD00BF7000002080B400AF72
:1011FC0000BFBD4680BC704780B500AF424B1B683A
:10120C00023B0C2B7CD801A252F823F04D120008A3
:10121C006D1200088D1200080D1300080D13000844
:10122C000D1300080D1300080D1300080D13000812
:10123C000D130008AD120008ED120008CD120008C5
:10124C0000222021314800F08AFB012280212F4806
:10125C0000F085FB012240212C4800F080FB50E07F
:10126C0001222021294800F07AFB00228021274806
:10127C0000F075FB01224021244800F070FB40E097
:10128C0001222021214800F06AFB012280211F4805
:10129C0000F065FB002240211C4800F060FB30E0B0
:1012AC0000222021194800F05AFB01228021174806
:1012BC0000F055FB01224021144800F050FB20E0C7
:1012CC0001222021114800F04AFB002280210F4806
:1012DC0000F045FB012240210C4800F040FB10E0DF
:1012EC0001222021094800F03AFB01228021074805
:1012FC0000F035FB00224021044800F030FB00E0F8
:10130C0000BF00BF80BD00BF4C00002000080140A2
:10131C000C480D490D4A002302E0D458C450043344
:10132C00C4188C42F9D30A4A0A4C002301E013601A
:10133C000432A242FBD3FFF759FF01F0F5FAFFF795
:10134C005BF87047000000202C000020CC2900081E
:10135C002C000020BC000020FEE7000080B500AF90
:10136C00084B1B68074A43F010031360032000F07E
:10137C0023F90F2000F008F8FFF7B0FE0023184601
:10138C0080BD00BF0020024080B582B000AF786005
:10139C00124B1A68124B1B7819464FF47A73B3FB35
:1013AC00F1F3B2FBF3F3184600F03BF90346002BC4
:1013BC0001D001230EE07B680F2B0AD8002279683C
:1013CC004FF0FF3000F003F9064A7B6813600023EE
:1013DC0000E0012318460837BD4680BD20000020E0
:1013EC00280000202400002080B400AF054B1B789F
:1013FC001A46054B1B681344034A136000BFBD46D5
:10140C0080BC704728000020B800002080B400AFDA
:10141C00024B1B681846BD4680BC7047B8000020C4
:10142C0080B485B000AF78607B6803F00703FB6085
:10143C000C4BDB68BB60BA684FF6FF031340BB6014
:10144C00FB681A02BB68134343F0BF6343F40033D9
:10145C00BB60044ABB68D36000BF1437BD4680BC78
:10146C00704700BF00ED00E080B400AF044BDB68B8
:10147C001B0A03F007031846BD4680BC704700BF2B
:10148C0000ED00E080B483B000AF0346FB7197F928
:10149C000730002B0BDBFB7903F01F02064997F991
:1014AC0007305B09012000FA02F241F8232000BF4B
:1014BC000C37BD4680BC704700E100E080B483B0BF
:1014CC0000AF03463960FB7197F90730002B0ADB3C
:1014DC003B68DAB20C4997F907301201D2B20B44CF
:1014EC0083F800230AE03B68DAB20849FB7903F081
:1014FC000F03043B1201D2B20B441A7600BF0C3717
:10150C00BD4680BC704700BF00E100E000ED00E08C
:10151C0080B489B000AFF860B9607A60FB6803F002
:10152C000703FB61FB69C3F10703042B28BF0423EA
:10153C00BB61FB690433062B02D9FB69033B00E05A
:10154C0000237B614FF0FF32BB6902FA03F3DA43ED
:10155C00BB681A407B699A404FF0FF317B6901FAF6
:10156C0003F3D9437B680B40134318462437BD461D
:10157C0080BC704780B582B000AF78607B68013B5F
:10158C00B3F1807F01D301230FE00A4A7B68013B52
:10159C0053600F214FF0FF30FFF790FF054B0022F7
:1015AC009A60044B07221A60002318460837BD4680
:1015BC0080BD00BF10E000E080B582B000AF786065
:1015CC007868FFF72DFF00BF0837BD4680BD80B59A
:1015DC0086B000AF0346B9607A60FB7300237B6171
:1015EC00FFF742FF78617A68B9687869FFF790FF76
:1015FC00024697F90F3011461846FFF75FFF00BF00
:10160C001837BD4680BD80B582B000AF0346FB7174
:10161C0097F907301846FFF735FF00BF0837BD466E
:10162C0080BD80B582B000AF78607868FFF7A2FF0C
:10163C00034618460837BD4680BD000080B48BB009
:10164C0000AF7860396000237B6200233B6248E185
:10165C0001227B6A02FA03F3FB613B681B68FA699F
:10166C001340BB61BA69FB699A4240F037813B6811
:10167C005B68A34A93425ED0A14A934275D8A14AB3
:10168C00934258D09F4A93426FD89F4A934252D06C
:10169C009D4A934269D89D4A93424CD09B4A9342AF
:1016AC0063D89B4A934246D0994A93425DD8122BF9
:1016BC002AD8122B59D801A252F823F0431700084C
:1016CC001D1700082F17000871170008771700085E
:1016DC0077170008771700087717000877170008A6
:1016EC007717000877170008771700087717000896
:1016FC007717000877170008771700087717000886
:10170C002517000839170008824A934213D02CE0A1
:10171C003B68DB683B6229E03B68DB6804333B6277
:10172C0024E03B68DB6808333B621FE03B68DB6806
:10173C000C333B621AE03B689B68002B02D10423FC
:10174C003B6213E03B689B68012B05D108233B628D
:10175C007B68FA691A6109E008233B627B68FA69C5
:10176C005A6103E000233B6200E000BFBB69FF2B22
:10177C0001D87B6801E07B6804337B61BB69FF2B7C
:10178C0002D87B6A9B0002E07B6A083B9B003B61B2
:10179C007B691A680F213B6901FA03F3DB431A409A
:1017AC00396A3B6901FA03F31A437B691A603B6897
:1017BC005B6803F08053002B00F09080564B9B69C4
:1017CC00554A43F001039361534B9B6903F00103AA
:1017DC00BB60BB68514A7B6A9B08023352F82330CA
:1017EC00FB607B6A03F003039B000F2202FA03F3F6
:1017FC00DB43FA681340FB607B68494A93420DD087
:10180C007B68484A934207D07B68474A934201D190
:10181C00022304E0032302E0012300E000237A6AA0
:10182C0002F0030292009340FA681343FB603B49B9
:10183C007B6A9B080233FA6841F823203B685B689B
:10184C0003F48033002B06D0384B1A683749BB6938
:10185C0013430B6006E0354B1A68BB69DB43334915
:10186C0013400B603B685B6803F40033002B06D01D
:10187C002E4B5A682D49BB6913434B6006E02B4B2A
:10188C005A68BB69DB43294913404B603B685B6872
:10189C0003F48013002B06D0244B9A682349BB69B0
:1018AC0013438B6006E0214B9A68BB69DB431F49ED
:1018BC0013408B603B685B6803F40013002B06D06D
:1018CC001A4BDA681949BB691343CB6006E0174B16
:1018DC00DA68BB69DB4315491340CB607B6A013383
:1018EC007B623B681A687B6A22FA03F3002B7FF455
:1018FC00AFAE00BF00BF2C37BD4680BC704700BFE9
:10190C0000003210000031100000221000002110E5
:10191C0000001210000011100010024000000140E5
:10192C0000080140000C014000100140000401407F
:10193C0080B485B000AF78600B467B807B689A687A
:10194C007B881340002B02D00123FB7301E00023A2
:10195C00FB73FB7B18461437BD4680BC704780B4C4
:10196C0083B000AF78600B467B8013467B707B782E
:10197C00002B03D07A887B681A6103E07B881A04F9
:10198C007B681A6100BF0C37BD4680BC70470000F5
:10199C0080B586B000AF78607B68002B01D1012345
:1019AC006CE27B681B6803F00103002B00F087805E
:1019BC00924B5B6803F00C03042B0CD08F4B5B68D1
:1019CC0003F00C03082B12D18C4B5B6803F48033AF
:1019DC00B3F5803F0BD1894B1B6803F40033002B0C
:1019EC006CD07B685B68002B68D1012346E27B6876
:1019FC005B68B3F5803F06D1804B1B687F4A43F48C
:101A0C00803313602EE07B685B68002B0CD17B4B22
:101A1C001B687A4A23F480331360784B1B68774A2F
:101A2C0023F4802313601DE07B685B68B3F5A02F63
:101A3C000CD1724B1B68714A43F4802313606F4BBB
:101A4C001B686E4A43F4803313600BE06B4B1B68CE
:101A5C006A4A23F480331360684B1B68674A23F48B
:101A6C00802313607B685B68002B13D0FFF7CEFCE0
:101A7C00386108E0FFF7CAFC02463B69D31A642BB5
:101A8C0001D90323FAE15D4B1B6803F40033002BEF
:101A9C00F0D014E0FFF7BAFC386108E0FFF7B6FCB1
:101AAC0002463B69D31A642B01D90323E6E1534B5D
:101ABC001B6803F40033002BF0D100E000BF7B68FF
:101ACC001B6803F00203002B63D04C4B5B6803F0E4
:101ADC000C03002B0BD0494B5B6803F00C03082B59
:101AEC001CD1464B5B6803F48033002B16D1434B5F
:101AFC001B6803F00203002B05D07B681B69012BCC
:101B0C0001D00123BAE13D4B1B6823F0F8027B683E
:101B1C005B69DB00394913430B603AE07B681B6956
:101B2C00002B20D0364B01221A60FFF76FFC386176
:101B3C0008E0FFF76BFC02463B69D31A022B01D974
:101B4C0003239BE12D4B1B6803F00203002BF0D009
:101B5C002A4B1B6823F0F8027B685B69DB00274982
:101B6C0013430B6015E0264B00221A60FFF74EFC66
:101B7C00386108E0FFF74AFC02463B69D31A022B96
:101B8C0001D903237AE11D4B1B6803F00203002BE0
:101B9C00F0D17B681B6803F00803002B3AD07B68FC
:101BAC009B69002B19D0174B01221A60FFF72EFCF2
:101BBC00386108E0FFF72AFC02463B69D31A022B76
:101BCC0001D903235AE10D4B5B6A03F00203002B8E
:101BDC00F0D0012000F0A6FA1CE00A4B00221A609B
:101BEC00FFF714FC38610FE0FFF710FC02463B696D
:101BFC00D31A022B08D9032340E100BF0010024086
:101C0C0000004242800442429E4B5B6A03F0020396
:101C1C00002BE9D17B681B6803F00403002B00F058
:101C2C00A6800023FB75974BDB6903F08053002BD8
:101C3C000DD1944BDB69934A43F08053D361914BA4
:101C4C00DB6903F08053BB60BB680123FB758E4BD3
:101C5C001B6803F48073002B18D18B4B1B688A4ACA
:101C6C0043F480731360FFF7D1FB386108E0FFF792
:101C7C00CDFB02463B69D31A642B01D90323FDE04B
:101C8C00814B1B6803F48073002BF0D07B68DB68FE
:101C9C00012B06D17B4B1B6A7A4A43F0010313627A
:101CAC002DE07B68DB68002B0CD1764B1B6A754AE8
:101CBC0023F001031362734B1B6A724A23F0040373
:101CCC0013621CE07B68DB68052B0CD16D4B1B6A27
:101CDC006C4A43F0040313626A4B1B6A694A43F073
:101CEC00010313620BE0674B1B6A664A23F0010386
:101CFC001362644B1B6A634A23F0040313627B6810
:101D0C00DB68002B15D0FFF781FB38610AE0FFF789
:101D1C007DFB02463B69D31A41F28832934201D9CA
:101D2C000323ABE0574B1B6A03F00203002BEED0EE
:101D3C0014E0FFF76BFB38610AE0FFF767FB024624
:101D4C003B69D31A41F28832934201D9032395E0BF
:101D5C004C4B1B6A03F00203002BEED1FB7D012BD5
:101D6C0005D1484BDB69474A23F08053D3617B682C
:101D7C00DB69002B00F08180424B5B6803F00C03A5
:101D8C00082B61D07B68DB69022B46D13F4B0022CC
:101D9C001A60FFF73BFB386108E0FFF737FB0246A0
:101DAC003B69D31A022B01D9032367E0354B1B681F
:101DBC0003F00073002BF0D17B681B6AB3F5803FF6
:101DCC0008D1304B5B6823F400327B689B682D494B
:101DDC0013434B602B4B5B6823F474127B68196ABA
:101DEC007B685B6A0B43274913434B60274B0122EB
:101DFC001A60FFF70BFB386108E0FFF707FB0246A0
:101E0C003B69D31A022B01D9032337E01D4B1B6806
:101E1C0003F00073002BF0D02FE01C4B00221A6053
:101E2C00FFF7F4FA386108E0FFF7F0FA02463B6975
:101E3C00D31A022B01D9032320E0124B1B6803F0A9
:101E4C000073002BF0D118E07B68DB69012B01D10A
:101E5C00012313E00B4B5B68FB60FB6803F48032DF
:101E6C007B681B6A9A4206D1FB6803F470127B688C
:101E7C005B6A9A4201D0012300E000231846183710
:101E8C00BD4680BD00100240007000406000424220
:101E9C0080B584B000AF786039607B68002B01D1CD
:101EAC000123D0E06A4B1B6803F007033A689A429F
:101EBC0010D9674B1B6823F0070265493B68134335
:101ECC000B60634B1B6803F007033A689A4201D01E
:101EDC000123B8E07B681B6803F00203002B20D0C1
:101EEC007B681B6803F00403002B05D0594B5B681F
:101EFC00584A43F4E06353607B681B6803F00803A3
:101F0C00002B05D0534B5B68524A43F4605353602B
:101F1C00504B5B6823F0F0027B689B684D49134380
:101F2C004B607B681B6803F00103002B40D07B687F
:101F3C005B68012B07D1474B1B6803F40033002B64
:101F4C0015D101237FE07B685B68022B07D1414BE5
:101F5C001B6803F00073002B09D1012373E03D4B88
:101F6C001B6803F00203002B01D101236BE0394BFA
:101F7C005B6823F003027B685B68364913434B6054
:101F8C00FFF744FAF8600AE0FFF740FA0246FB68F4
:101F9C00D31A41F28832934201D9032353E02D4BDB
:101FAC005B6803F00C027B685B689B009A42EBD188
:101FBC00274B1B6803F007033A689A4210D2244B54
:101FCC001B6823F0070222493B6813430B60204B2C
:101FDC001B6803F007033A689A4201D0012332E0F0
:101FEC007B681B6803F00403002B08D0194B5B685B
:101FFC0023F4E0627B68DB68164913434B607B6813
:10200C001B6803F00803002B09D0124B5B6823F408
:10201C0060527B681B69DB000E4913434B6000F078
:10202C0021F802460B4B5B681B0903F00F030A49AE
:10203C00CB5C22FA03F3094A1360094B1B68184660
:10204C00FFF7A2F9002318461037BD4680BD00BF2C
:10205C000020024000100240B4290008200000209B
:10206C002400002090B48AB000AF2A4B3C1D0FCB4B
:10207C0084E80F0040F201233B800023FB61002326
:10208C00BB6100237B6200237B6100233B62224BFC
:10209C005B68FB61FB6903F00C03042B02D0082B7B
:1020AC0003D02DE01D4B3B622DE0FB699B0C03F034
:1020BC000F0307F12802134413F8243C7B61FB69DE
:1020CC0003F48033002B13D0134B5B685B0C03F0D1
:1020DC00010307F12802134413F8283CBB617B6908
:1020EC000E4A02FB03F2BB69B2FBF3F37B6204E022
:1020FC007B690B4A02FB03F37B627B6A3B6202E067
:10210C00064B3B6200BF3B6A18462837BD4690BC65
:10211C00704700BFA42900080010024000127A008A
:10212C0000093D0080B485B000AF78600A4B1B6895
:10213C000A4AA2FB03235B0A7A6802FB03F3FB60E7
:10214C0000BFFB685A1EFA60002BF9D100BF00BF1C
:10215C001437BD4680BC704720000020D34D621060
:10216C0080B582B000AF78607B68002B01D1012371
:10217C0041E07B6893F83D30DBB2002B06D17B68E5
:10218C00002283F83C207868FEF7DAFF7B68022295
:10219C0083F83D207B681A687B6804331946104627
:1021AC0000F06AFA7B68012283F846207B680122E2
:1021BC0083F83E207B68012283F83F207B68012254
:1021CC0083F840207B68012283F841207B68012240
:1021DC0083F842207B68012283F843207B6801222C
:1021EC0083F844207B68012283F845207B68012218
:1021FC0083F83D20002318460837BD4680BD0000FB
:10220C0080B485B000AF78607B6893F83D30DBB26A
:10221C00012B01D0012335E07B68022283F83D209D
:10222C007B681B68DA687B681B6842F00102DA6025
:10223C007B681B68164A934209D07B681B68B3F114
:10224C00804F04D07B681B68124A934211D17B6883
:10225C001B689B6803F00703FB60FB68062B10D020
:10226C007B681B681A687B681B6842F001021A6065
:10227C0007E07B681B681A687B681B6842F00102E8
:10228C001A60002318461437BD4680BC704700BF47
:10229C00002C01400004004080B582B000AF786093
:1022AC007B681B681B6903F00203022B22D17B683D
:1022BC001B68DB6803F00203022B1BD17B681B68D5
:1022CC006FF002021A617B6801221A777B681B6827
:1022DC009B6903F00303002B03D0786800F0B1F97D
:1022EC0005E0786800F0A4F9786800F0B3F97B6831
:1022FC0000221A777B681B681B6903F00403042B0C
:10230C0022D17B681B68DB6803F00403042B1BD110
:10231C007B681B686FF004021A617B6802221A77D3
:10232C007B681B689B6903F44073002B03D07868AF
:10233C0000F087F905E0786800F07AF9786800F029
:10234C0089F97B6800221A777B681B681B6903F08C
:10235C000803082B22D17B681B68DB6803F0080399
:10236C00082B1BD17B681B686FF008021A617B6815
:10237C0004221A777B681B68DB6903F00303002BCC
:10238C0003D0786800F05DF905E0786800F050F94A
:10239C00786800F05FF97B6800221A777B681B680D
:1023AC001B6903F01003102B22D17B681B68DB68C0
:1023BC0003F01003102B1BD17B681B686FF010020D
:1023CC001A617B6808221A777B681B68DB6903F447
:1023DC004073002B03D0786800F033F905E078687F
:1023EC0000F026F9786800F035F97B6800221A773E
:1023FC007B681B681B6903F00103012B0ED17B6802
:10240C001B68DB6803F00103012B07D17B681B6899
:10241C006FF001021A617868FEF714FC7B681B6888
:10242C001B6903F08003802B0ED17B681B68DB6873
:10243C0003F08003802B07D17B681B686FF0800250
:10244C001A61786800F067FA7B681B681B6903F0F7
:10245C004003402B0ED17B681B68DB6803F0400304
:10246C00402B07D17B681B686FF040021A617868BB
:10247C0000F0F9F87B681B681B6903F02003202B24
:10248C000ED17B681B68DB6803F02003202B07D17F
:10249C007B681B686FF020021A61786800F032FAD2
:1024AC0000BF0837BD4680BD80B584B000AF7860F2
:1024BC0039607B6893F83C30012B01D10223B3E0E7
:1024CC007B68012283F83C207B68022283F83D2044
:1024DC007B681B689B68FB60FB6823F07703FB60E1
:1024EC00FB6823F47F43FB607B681B68FA689A6087
:1024FC003B681B68B3F5005F3ED0B3F5005F00F29C
:10250C008780B3F5805F00F08580B3F5805F7FD85E
:10251C00702B1AD0702B7BD8602B50D0602B77D8B7
:10252C00502B3CD0502B73D8402B58D0402B6FD80D
:10253C00302B64D0302B6BD8202B60D0202B67D85D
:10254C00002B5CD0102B5AD062E07B6818683B687B
:10255C0099683B685A683B68DB6800F05CF97B68FB
:10256C001B689B68FB60FB6843F07703FB607B6830
:10257C001B68FA689A604EE07B6818683B6899683B
:10258C003B685A683B68DB6800F045F97B681B6860
:10259C009A687B681B6842F480429A603BE07B68D7
:1025AC0018683B6859683B68DB681A4600F0BCF851
:1025BC007B681B685021184600F013F92BE07B68F0
:1025CC0018683B6859683B68DB681A4600F0DAF813
:1025DC007B681B686021184600F003F91BE07B68E0
:1025EC0018683B6859683B68DB681A4600F09CF831
:1025FC007B681B684021184600F0F3F80BE07B6801
:10260C001A683B681B681946104600F0EAF802E0AD
:10261C0000BF00E000BF7B68012283F83D207B688F
:10262C00002283F83C20002318461037BD4680BD9D
:10263C0080B483B000AF786000BF0C37BD4680BC5F
:10264C00704780B483B000AF786000BF0C37BD46D4
:10265C0080BC704780B483B000AF786000BF0C378B
:10266C00BD4680BC704780B483B000AF786000BFBB
:10267C000C37BD4680BC704780B485B000AF786025
:10268C0039607B681B68FB607B68254A934207D0E6
:10269C007B68B3F1804F03D07B68224A934208D108
:1026AC00FB6823F07003FB603B685B68FA681343BC
:1026BC00FB607B681A4A934207D07B68B3F1804F6A
:1026CC0003D07B68174A934208D1FB6823F440730C
:1026DC00FB603B68DB68FA681343FB60FB6823F024
:1026EC0080023B685B691343FB607B68FA681A6085
:1026FC003B689A687B68DA623B681A687B689A6206
:10270C007B68074A934203D13B681A697B681A635A
:10271C007B6801225A6100BF1437BD4680BC7047EC
:10272C00002C01400004004080B487B000AFF8607A
:10273C00B9607A60FB681B6A7B61FB681B6A23F0DB
:10274C000102FB681A62FB689B693B613B6923F0E1
:10275C00F0033B617B681B013A6913433B617B6966
:10276C0023F00A037B617A69BB6813437B61FB68C6
:10277C003A699A61FB687A691A6200BF1C37BD46D8
:10278C0080BC704780B487B000AFF860B9607A60E5
:10279C00FB681B6A23F01002FB681A62FB689B69DA
:1027AC007B61FB681B6A3B617B6923F470437B6133
:1027BC007B681B037A6913437B613B6923F0A0039D
:1027CC003B61BB681B013A6913433B61FB687A6947
:1027DC009A61FB683A691A6200BF1C37BD4680BC1F
:1027EC00704780B485B000AF786039607B689B68B7
:1027FC00FB60FB6823F07003FB603A68FB681343D3
:10280C0043F00703FB607B68FA689A6000BF1437DB
:10281C00BD4680BC704780B487B000AFF860B9602B
:10282C007A603B60FB689B687B617B6923F47F4328
:10283C007B613B681A027B681A43BB6813437A6955
:10284C0013437B61FB687A699A6000BF1C37BD46F5
:10285C0080BC704780B485B000AF786039607B680D
:10286C0093F83C30012B01D1022341E07B6801221B
:10287C0083F83C207B68022283F83D207B681B6830
:10288C005B68FB607B681B689B68BB60FB6823F024
:10289C007003FB603B681B68FA681343FB607B6842
:1028AC001B68FA685A607B681B68144A934209D00B
:1028BC007B681B68B3F1804F04D07B681B68104A9F
:1028CC0093420CD1BB6823F08003BB603B685B6810
:1028DC00BA681343BB607B681B68BA689A607B68F4
:1028EC00012283F83D207B68002283F83C200023E2
:1028FC0018461437BD4680BC704700BF002C014001
:10290C000004004080B483B000AF786000BF0C3787
:10291C00BD4680BC704780B483B000AF786000BF08
:10292C000C37BD4680BC704770B500260C4D0D4C65
:10293C00641BA410A64209D100F022F800260A4D0F
:10294C000A4C641BA410A64205D170BD55F8043B7B
:10295C0098470136EEE755F8043B98470136F2E705
:10296C00C4290008C4290008C4290008C829000883
:10297C0003460244934200D1704703F8011BF9E768
:10298C00F8B500BFF8BC08BC9E467047F8B500BF50
:08299C00F8BC08BC9E46704720
:1029A40002030405060708090A0B0C0D0E0F10108C
:1029B40000000000000000000102030406070809EB
:0429C40031010008D5
:0429C8000D010008F5
:1029CC0001000000010000000100000001000000F7
:1029DC00C80000000100000001000000030000001E
:0C29EC000024F4001000000001000000B6
:040000050800131DBF
:00000001FF
